{
  "_format": "hh-sol-artifact-1",
  "contractName": "TrustPool",
  "sourceName": "contracts/TrustPool.sol",
  "abi": [
    {
      "inputs": [
        {
          "internalType": "contract ISuperfluid",
          "name": "host",
          "type": "address"
        }
      ],
      "stateMutability": "nonpayable",
      "type": "constructor"
    },
    {
      "inputs": [],
      "name": "NO_FLOW_CHANGE",
      "type": "error"
    },
    {
      "inputs": [],
      "name": "NotAcceptedSuperToken",
      "type": "error"
    },
    {
      "inputs": [],
      "name": "NotImplemented",
      "type": "error"
    },
    {
      "inputs": [],
      "name": "UnauthorizedHost",
      "type": "error"
    },
    {
      "anonymous": false,
      "inputs": [
        {
          "indexed": false,
          "internalType": "address",
          "name": "truster",
          "type": "address"
        },
        {
          "indexed": false,
          "internalType": "address",
          "name": "recipient",
          "type": "address"
        },
        {
          "indexed": false,
          "internalType": "int96",
          "name": "newTrust",
          "type": "int96"
        },
        {
          "indexed": false,
          "internalType": "int96",
          "name": "totalTrusteeInFlow",
          "type": "int96"
        },
        {
          "indexed": false,
          "internalType": "int96",
          "name": "totalTrusterOutFlow",
          "type": "int96"
        },
        {
          "indexed": false,
          "internalType": "uint256",
          "name": "prevTrustScore",
          "type": "uint256"
        },
        {
          "indexed": false,
          "internalType": "uint256",
          "name": "newTrustScore",
          "type": "uint256"
        }
      ],
      "name": "TrustUpdated",
      "type": "event"
    },
    {
      "inputs": [],
      "name": "CFAV1_TYPE",
      "outputs": [
        {
          "internalType": "bytes32",
          "name": "",
          "type": "bytes32"
        }
      ],
      "stateMutability": "view",
      "type": "function"
    },
    {
      "inputs": [],
      "name": "HOST",
      "outputs": [
        {
          "internalType": "contract ISuperfluid",
          "name": "",
          "type": "address"
        }
      ],
      "stateMutability": "view",
      "type": "function"
    },
    {
      "inputs": [
        {
          "internalType": "address",
          "name": "member",
          "type": "address"
        },
        {
          "internalType": "enum TrustPool.IdType",
          "name": "idtype",
          "type": "uint8"
        }
      ],
      "name": "addMember",
      "outputs": [],
      "stateMutability": "nonpayable",
      "type": "function"
    },
    {
      "inputs": [
        {
          "internalType": "contract ISuperToken",
          "name": "superToken",
          "type": "address"
        },
        {
          "internalType": "address",
          "name": "agreementClass",
          "type": "address"
        },
        {
          "internalType": "bytes32",
          "name": "",
          "type": "bytes32"
        },
        {
          "internalType": "bytes",
          "name": "agreementData",
          "type": "bytes"
        },
        {
          "internalType": "bytes",
          "name": "",
          "type": "bytes"
        },
        {
          "internalType": "bytes",
          "name": "ctx",
          "type": "bytes"
        }
      ],
      "name": "afterAgreementCreated",
      "outputs": [
        {
          "internalType": "bytes",
          "name": "newCtx",
          "type": "bytes"
        }
      ],
      "stateMutability": "nonpayable",
      "type": "function"
    },
    {
      "inputs": [
        {
          "internalType": "contract ISuperToken",
          "name": "superToken",
          "type": "address"
        },
        {
          "internalType": "address",
          "name": "agreementClass",
          "type": "address"
        },
        {
          "internalType": "bytes32",
          "name": "",
          "type": "bytes32"
        },
        {
          "internalType": "bytes",
          "name": "agreementData",
          "type": "bytes"
        },
        {
          "internalType": "bytes",
          "name": "cbdata",
          "type": "bytes"
        },
        {
          "internalType": "bytes",
          "name": "ctx",
          "type": "bytes"
        }
      ],
      "name": "afterAgreementTerminated",
      "outputs": [
        {
          "internalType": "bytes",
          "name": "newCtx",
          "type": "bytes"
        }
      ],
      "stateMutability": "nonpayable",
      "type": "function"
    },
    {
      "inputs": [
        {
          "internalType": "contract ISuperToken",
          "name": "superToken",
          "type": "address"
        },
        {
          "internalType": "address",
          "name": "agreementClass",
          "type": "address"
        },
        {
          "internalType": "bytes32",
          "name": "",
          "type": "bytes32"
        },
        {
          "internalType": "bytes",
          "name": "agreementData",
          "type": "bytes"
        },
        {
          "internalType": "bytes",
          "name": "cbdata",
          "type": "bytes"
        },
        {
          "internalType": "bytes",
          "name": "ctx",
          "type": "bytes"
        }
      ],
      "name": "afterAgreementUpdated",
      "outputs": [
        {
          "internalType": "bytes",
          "name": "newCtx",
          "type": "bytes"
        }
      ],
      "stateMutability": "nonpayable",
      "type": "function"
    },
    {
      "inputs": [
        {
          "internalType": "contract ISuperToken",
          "name": "",
          "type": "address"
        },
        {
          "internalType": "address",
          "name": "",
          "type": "address"
        },
        {
          "internalType": "bytes32",
          "name": "",
          "type": "bytes32"
        },
        {
          "internalType": "bytes",
          "name": "",
          "type": "bytes"
        },
        {
          "internalType": "bytes",
          "name": "",
          "type": "bytes"
        }
      ],
      "name": "beforeAgreementCreated",
      "outputs": [
        {
          "internalType": "bytes",
          "name": "",
          "type": "bytes"
        }
      ],
      "stateMutability": "pure",
      "type": "function"
    },
    {
      "inputs": [
        {
          "internalType": "contract ISuperToken",
          "name": "superToken",
          "type": "address"
        },
        {
          "internalType": "address",
          "name": "agreementClass",
          "type": "address"
        },
        {
          "internalType": "bytes32",
          "name": "",
          "type": "bytes32"
        },
        {
          "internalType": "bytes",
          "name": "agreementData",
          "type": "bytes"
        },
        {
          "internalType": "bytes",
          "name": "",
          "type": "bytes"
        }
      ],
      "name": "beforeAgreementTerminated",
      "outputs": [
        {
          "internalType": "bytes",
          "name": "",
          "type": "bytes"
        }
      ],
      "stateMutability": "view",
      "type": "function"
    },
    {
      "inputs": [
        {
          "internalType": "contract ISuperToken",
          "name": "superToken",
          "type": "address"
        },
        {
          "internalType": "address",
          "name": "agreementClass",
          "type": "address"
        },
        {
          "internalType": "bytes32",
          "name": "",
          "type": "bytes32"
        },
        {
          "internalType": "bytes",
          "name": "agreementData",
          "type": "bytes"
        },
        {
          "internalType": "bytes",
          "name": "",
          "type": "bytes"
        }
      ],
      "name": "beforeAgreementUpdated",
      "outputs": [
        {
          "internalType": "bytes",
          "name": "",
          "type": "bytes"
        }
      ],
      "stateMutability": "view",
      "type": "function"
    },
    {
      "inputs": [
        {
          "internalType": "bool",
          "name": "activateOnCreated",
          "type": "bool"
        },
        {
          "internalType": "bool",
          "name": "activateOnUpdated",
          "type": "bool"
        },
        {
          "internalType": "bool",
          "name": "activateOnDeleted",
          "type": "bool"
        }
      ],
      "name": "getConfigWord",
      "outputs": [
        {
          "internalType": "uint256",
          "name": "configWord",
          "type": "uint256"
        }
      ],
      "stateMutability": "pure",
      "type": "function"
    },
    {
      "inputs": [
        {
          "internalType": "address",
          "name": "member1",
          "type": "address"
        },
        {
          "internalType": "address",
          "name": "member2",
          "type": "address"
        }
      ],
      "name": "getMutualId",
      "outputs": [
        {
          "internalType": "enum TrustPool.IdType",
          "name": "mutualId",
          "type": "uint8"
        }
      ],
      "stateMutability": "view",
      "type": "function"
    },
    {
      "inputs": [
        {
          "internalType": "contract ISuperToken",
          "name": "",
          "type": "address"
        }
      ],
      "name": "isAcceptedSuperToken",
      "outputs": [
        {
          "internalType": "bool",
          "name": "",
          "type": "bool"
        }
      ],
      "stateMutability": "view",
      "type": "function"
    },
    {
      "inputs": [
        {
          "internalType": "address",
          "name": "",
          "type": "address"
        },
        {
          "internalType": "uint256",
          "name": "",
          "type": "uint256"
        }
      ],
      "name": "memberTrusts",
      "outputs": [
        {
          "internalType": "bytes32",
          "name": "",
          "type": "bytes32"
        }
      ],
      "stateMutability": "view",
      "type": "function"
    },
    {
      "inputs": [
        {
          "internalType": "enum TrustPool.IdType",
          "name": "",
          "type": "uint8"
        },
        {
          "internalType": "address",
          "name": "",
          "type": "address"
        }
      ],
      "name": "members",
      "outputs": [
        {
          "internalType": "bool",
          "name": "",
          "type": "bool"
        }
      ],
      "stateMutability": "view",
      "type": "function"
    },
    {
      "inputs": [
        {
          "internalType": "bool",
          "name": "activateOnCreated",
          "type": "bool"
        },
        {
          "internalType": "bool",
          "name": "activateOnUpdated",
          "type": "bool"
        },
        {
          "internalType": "bool",
          "name": "activateOnDeleted",
          "type": "bool"
        }
      ],
      "name": "selfRegister",
      "outputs": [],
      "stateMutability": "nonpayable",
      "type": "function"
    },
    {
      "inputs": [
        {
          "internalType": "address",
          "name": "",
          "type": "address"
        }
      ],
      "name": "trustScore",
      "outputs": [
        {
          "internalType": "uint256",
          "name": "",
          "type": "uint256"
        }
      ],
      "stateMutability": "view",
      "type": "function"
    },
    {
      "inputs": [
        {
          "internalType": "bytes32",
          "name": "",
          "type": "bytes32"
        }
      ],
      "name": "trusts",
      "outputs": [
        {
          "internalType": "address",
          "name": "trustee",
          "type": "address"
        },
        {
          "internalType": "int96",
          "name": "flowRate",
          "type": "int96"
        },
        {
          "internalType": "enum TrustPool.IdType",
          "name": "idtype",
          "type": "uint8"
        }
      ],
      "stateMutability": "view",
      "type": "function"
    }
  ],
  "bytecode": "0x60a06040523480156200001157600080fd5b506040516200438138038062004381833981810160405281019062000037919062000225565b808073ffffffffffffffffffffffffffffffffffffffff1660808173ffffffffffffffffffffffffffffffffffffffff168152505050620000826001806001620000ca60201b60201c565b33600460006101000a81548173ffffffffffffffffffffffffffffffffffffffff021916908373ffffffffffffffffffffffffffffffffffffffff160217905550506200028f565b60805173ffffffffffffffffffffffffffffffffffffffff1663ad3915c8620000fb8585856200015260201b60201c565b6040518263ffffffff1660e01b815260040162000119919062000272565b600060405180830381600087803b1580156200013457600080fd5b505af115801562000149573d6000803e3d6000fd5b50505050505050565b60006401000000006001179050836200017057640200000000811790505b82620001885764080000000064040000000017811790505b81620001a05764200000000064100000000017811790505b9392505050565b600080fd5b600073ffffffffffffffffffffffffffffffffffffffff82169050919050565b6000620001d982620001ac565b9050919050565b6000620001ed82620001cc565b9050919050565b620001ff81620001e0565b81146200020b57600080fd5b50565b6000815190506200021f81620001f4565b92915050565b6000602082840312156200023e576200023d620001a7565b5b60006200024e848285016200020e565b91505092915050565b6000819050919050565b6200026c8162000257565b82525050565b600060208201905062000289600083018462000261565b92915050565b60805161409e620002e3600039600081816103fa015281816105a7015281816105e5015281816106f90152818161098701528181610bb7015281816111b10152818161124d01526115a2015261409e6000f3fe608060405234801561001057600080fd5b506004361061010b5760003560e01c806378799c74116100a2578063c0968ca411610071578063c0968ca41461031a578063d86ed3e51461034a578063d89e397c1461037a578063d9970266146103aa578063dc7316e8146103da5761010b565b806378799c741461026a578063884d1f401461029c578063bb6bd841146102cc578063bcb4546f146102fc5761010b565b806353c11f99116100de57806353c11f99146101be5780635f9e7d77146101ee57806362d0d1c31461021e57806372ca8a3e1461023a5761010b565b8063230dbd291461011057806330d9c9151461014057806349f289dc14610170578063534a84651461018e575b600080fd5b61012a60048036038101906101259190612b40565b6103f6565b6040516101379190612cbf565b60405180910390f35b61015a60048036038101906101559190612ce1565b610560565b6040516101679190612cbf565b60405180910390f35b6101786105a5565b6040516101859190612dfc565b60405180910390f35b6101a860048036038101906101a39190612e17565b6105c9565b6040516101b59190612e5d565b60405180910390f35b6101d860048036038101906101d39190612b40565b6105e1565b6040516101e59190612cbf565b60405180910390f35b61020860048036038101906102039190612ce1565b6106f5565b6040516102159190612cbf565b60405180910390f35b61023860048036038101906102339190612e9d565b610829565b005b610254600480360381019061024f9190612edd565b610914565b6040516102619190612f25565b60405180910390f35b610284600480360381019061027f9190612f40565b61091f565b6040516102939392919061300f565b60405180910390f35b6102b660048036038101906102b19190612ce1565b610983565b6040516102c39190612cbf565b60405180910390f35b6102e660048036038101906102e19190613046565b610b0e565b6040516102f39190612f25565b60405180910390f35b610304610b3d565b6040516103119190613095565b60405180910390f35b610334600480360381019061032f91906130dc565b610b61565b6040516103419190612e5d565b60405180910390f35b610364600480360381019061035f9190612b40565b610bb3565b6040516103719190612cbf565b60405180910390f35b610394600480360381019061038f919061315b565b610d03565b6040516103a19190613095565b60405180910390f35b6103c460048036038101906103bf919061319b565b610d34565b6040516103d191906131db565b60405180910390f35b6103f460048036038101906103ef91906130dc565b6111af565b005b60607f000000000000000000000000000000000000000000000000000000000000000073ffffffffffffffffffffffffffffffffffffffff163373ffffffffffffffffffffffffffffffffffffffff161461047d576040517f2f2d36a700000000000000000000000000000000000000000000000000000000815260040160405180910390fd5b61048689611249565b6104d65782828080601f016020809104026020016040519081016040528093929190818152602001838380828437600081840152601f19601f820116905080830192505050505050509050610553565b6104df8a610914565b610515576040517ff512dd5800000000000000000000000000000000000000000000000000000000815260040160405180910390fd5b600087878101906105269190613234565b509050600080878781019061053b91906132a0565b9150915061054d8d8484848a8a61133a565b93505050505b9998505050505050505050565b60606040518060400160405280600281526020017f30780000000000000000000000000000000000000000000000000000000000008152509050979650505050505050565b7f000000000000000000000000000000000000000000000000000000000000000081565b60036020528060005260406000206000915090505481565b60607f000000000000000000000000000000000000000000000000000000000000000073ffffffffffffffffffffffffffffffffffffffff163373ffffffffffffffffffffffffffffffffffffffff16141580610644575061064289611249565b155b8061065557506106538a610914565b155b156106a65782828080601f016020809104026020016040519081016040528093929190818152602001838380828437600081840152601f19601f8201169050808301925050505050505090506106e8565b60008088888101906106b89190613234565b9150915060008088888101906106ce91906132e0565b915091506106e18e858584868c8c61139b565b9450505050505b9998505050505050505050565b60607f000000000000000000000000000000000000000000000000000000000000000073ffffffffffffffffffffffffffffffffffffffff163373ffffffffffffffffffffffffffffffffffffffff16141580610758575061075687611249565b155b80610769575061076788610914565b155b156107ab576040518060400160405280600281526020017f3078000000000000000000000000000000000000000000000000000000000000815250905061081e565b60008086868101906107bd9190613234565b915091506000806107ef84848e73ffffffffffffffffffffffffffffffffffffffff166113fd9092919063ffffffff16565b5050915091508181604051602001610808929190613320565b6040516020818303038152906040529450505050505b979650505050505050565b600460009054906101000a900473ffffffffffffffffffffffffffffffffffffffff1673ffffffffffffffffffffffffffffffffffffffff163373ffffffffffffffffffffffffffffffffffffffff161461088357600080fd5b60016002600083600481111561089c5761089b612f98565b5b60048111156108ae576108ad612f98565b5b815260200190815260200160002060008473ffffffffffffffffffffffffffffffffffffffff1673ffffffffffffffffffffffffffffffffffffffff16815260200190815260200160002060006101000a81548160ff0219169083151502179055505050565b600060019050919050565b60006020528060005260406000206000915090508060000160009054906101000a900473ffffffffffffffffffffffffffffffffffffffff16908060000160149054906101000a9004600b0b908060010160009054906101000a900460ff16905083565b60607f000000000000000000000000000000000000000000000000000000000000000073ffffffffffffffffffffffffffffffffffffffff163373ffffffffffffffffffffffffffffffffffffffff1614610a0a576040517f2f2d36a700000000000000000000000000000000000000000000000000000000815260040160405180910390fd5b610a1387611249565b610a54576040518060400160405280600281526020017f30780000000000000000000000000000000000000000000000000000000000008152509050610b03565b610a5d88610914565b610a93576040517ff512dd5800000000000000000000000000000000000000000000000000000000815260040160405180910390fd5b60008585810190610aa49190613234565b509050600080610ad583308d73ffffffffffffffffffffffffffffffffffffffff166113fd9092919063ffffffff16565b5050915091508082604051602001610aee929190613349565b60405160208183030381529060405293505050505b979650505050505050565b60026020528160005260406000206020528060005260406000206000915091509054906101000a900460ff1681565b7fa9214cc96615e0085d3bb077758db69497dc2dce3b2b1e97bc93c3d18d83efd381565b6000640100000000600117905083610b7e57640200000000811790505b82610b955764080000000064040000000017811790505b81610bac5764200000000064100000000017811790505b9392505050565b60607f000000000000000000000000000000000000000000000000000000000000000073ffffffffffffffffffffffffffffffffffffffff163373ffffffffffffffffffffffffffffffffffffffff1614610c3a576040517f2f2d36a700000000000000000000000000000000000000000000000000000000815260040160405180910390fd5b610c4389611249565b610c935782828080601f016020809104026020016040519081016040528093929190818152602001838380828437600081840152601f19601f820116905080830192505050505050509050610cf6565b610c9c8a610914565b610cd2576040517ff512dd5800000000000000000000000000000000000000000000000000000000815260040160405180910390fd5b60008787810190610ce39190613234565b509050610cf28b8286866114a9565b9150505b9998505050505050505050565b60016020528160005260406000208181548110610d1f57600080fd5b90600052602060002001600091509150505481565b60006002600060016004811115610d4e57610d4d612f98565b5b6004811115610d6057610d5f612f98565b5b815260200190815260200160002060008473ffffffffffffffffffffffffffffffffffffffff1673ffffffffffffffffffffffffffffffffffffffff16815260200190815260200160002060009054906101000a900460ff168015610e4457506002600060016004811115610dd857610dd7612f98565b5b6004811115610dea57610de9612f98565b5b815260200190815260200160002060008373ffffffffffffffffffffffffffffffffffffffff1673ffffffffffffffffffffffffffffffffffffffff16815260200190815260200160002060009054906101000a900460ff165b15610e5257600190506111a9565b6002600060026004811115610e6a57610e69612f98565b5b6004811115610e7c57610e7b612f98565b5b815260200190815260200160002060008473ffffffffffffffffffffffffffffffffffffffff1673ffffffffffffffffffffffffffffffffffffffff16815260200190815260200160002060009054906101000a900460ff168015610f6057506002600060026004811115610ef457610ef3612f98565b5b6004811115610f0657610f05612f98565b5b815260200190815260200160002060008373ffffffffffffffffffffffffffffffffffffffff1673ffffffffffffffffffffffffffffffffffffffff16815260200190815260200160002060009054906101000a900460ff165b15610f6e57600290506111a9565b6002600060036004811115610f8657610f85612f98565b5b6004811115610f9857610f97612f98565b5b815260200190815260200160002060008473ffffffffffffffffffffffffffffffffffffffff1673ffffffffffffffffffffffffffffffffffffffff16815260200190815260200160002060009054906101000a900460ff16801561107c575060026000600360048111156110105761100f612f98565b5b600481111561102257611021612f98565b5b815260200190815260200160002060008373ffffffffffffffffffffffffffffffffffffffff1673ffffffffffffffffffffffffffffffffffffffff16815260200190815260200160002060009054906101000a900460ff165b1561108a57600390506111a9565b600260006004808111156110a1576110a0612f98565b5b60048111156110b3576110b2612f98565b5b815260200190815260200160002060008473ffffffffffffffffffffffffffffffffffffffff1673ffffffffffffffffffffffffffffffffffffffff16815260200190815260200160002060009054906101000a900460ff16801561119657506002600060048081111561112a57611129612f98565b5b600481111561113c5761113b612f98565b5b815260200190815260200160002060008373ffffffffffffffffffffffffffffffffffffffff1673ffffffffffffffffffffffffffffffffffffffff16815260200190815260200160002060009054906101000a900460ff165b156111a457600490506111a9565b600090505b92915050565b7f000000000000000000000000000000000000000000000000000000000000000073ffffffffffffffffffffffffffffffffffffffff1663ad3915c86111f6858585610b61565b6040518263ffffffff1660e01b81526004016112129190612e5d565b600060405180830381600087803b15801561122c57600080fd5b505af1158015611240573d6000803e3d6000fd5b50505050505050565b60007f000000000000000000000000000000000000000000000000000000000000000073ffffffffffffffffffffffffffffffffffffffff1663b6d200de7fa9214cc96615e0085d3bb077758db69497dc2dce3b2b1e97bc93c3d18d83efd36040518263ffffffff1660e01b81526004016112c49190613095565b602060405180830381865afa1580156112e1573d6000803e3d6000fd5b505050506040513d601f19601f8201168201806040525081019061130591906133b0565b73ffffffffffffffffffffffffffffffffffffffff168273ffffffffffffffffffffffffffffffffffffffff16149050919050565b606082828080601f016020809104026020016040519081016040528093929190818152602001838380828437600081840152601f19601f82011690508083019250505050505050905061138f87878784611509565b90509695505050505050565b606082828080601f016020809104026020016040519081016040528093929190818152602001838380828437600081840152601f19601f8201169050808301925050505050505090506113f088888784611509565b9050979650505050505050565b600080600080600061140e88611687565b9150508073ffffffffffffffffffffffffffffffffffffffff1663e6a1e8888989896040518463ffffffff1660e01b815260040161144e939291906133fe565b608060405180830381865afa15801561146b573d6000803e3d6000fd5b505050506040513d601f19601f8201168201806040525081019061148f919061345f565b809550819650829750839850505050505093509350935093565b606082828080601f016020809104026020016040519081016040528093929190818152602001838380828437600081840152601f19601f8201169050808301925050505050505090506114ff8585600084611509565b9050949350505050565b6060819050600061153b85308873ffffffffffffffffffffffffffffffffffffffff166113fd9092919063ffffffff16565b505091505080600b0b84600b0b0361157f576040517f2c430a2b00000000000000000000000000000000000000000000000000000000815260040160405180910390fd5b600081600b0b0361159d576115958686846118c8565b91505061167f565b6000807f000000000000000000000000000000000000000000000000000000000000000073ffffffffffffffffffffffffffffffffffffffff16633f6c923a866040518263ffffffff1660e01b81526004016115f99190612cbf565b600060405180830381865afa158015611616573d6000803e3d6000fd5b505050506040513d6000823e3d601f19601f8201168201806040525081019061163f9190613833565b60a001518060200190518101906116569190613891565b91509150600086846116689190613900565b905061167889898584868a611bcc565b9450505050505b949350505050565b6000807f65599bf746e17a00ea62e3610586992d88101b78eec3cf380706621fb97ea8375491507fb969d79d88acd02d04ed7ee7d43b949e7daf093d363abcfbbc43dfdfd1ce969a549050600073ffffffffffffffffffffffffffffffffffffffff168173ffffffffffffffffffffffffffffffffffffffff160361184957600073ffffffffffffffffffffffffffffffffffffffff168273ffffffffffffffffffffffffffffffffffffffff16036117ac578273ffffffffffffffffffffffffffffffffffffffff166320bc44256040518163ffffffff1660e01b8152600401602060405180830381865afa158015611785573d6000803e3d6000fd5b505050506040513d601f19601f820116820180604052508101906117a99190613964565b91505b8173ffffffffffffffffffffffffffffffffffffffff1663b6d200de7fa9214cc96615e0085d3bb077758db69497dc2dce3b2b1e97bc93c3d18d83efd36040518263ffffffff1660e01b81526004016118059190613095565b602060405180830381865afa158015611822573d6000803e3d6000fd5b505050506040513d601f19601f8201168201806040525081019061184691906133b0565b90505b600073ffffffffffffffffffffffffffffffffffffffff168273ffffffffffffffffffffffffffffffffffffffff160361188657611885613991565b5b600073ffffffffffffffffffffffffffffffffffffffff168173ffffffffffffffffffffffffffffffffffffffff16036118c3576118c2613991565b5b915091565b60606000600160008573ffffffffffffffffffffffffffffffffffffffff1673ffffffffffffffffffffffffffffffffffffffff16815260200190815260200160002080548060200260200160405190810160405280929190818152602001828054801561195557602002820191906000526020600020905b815481526020019060010190808311611941575b5050505050905082915060005b8151811015611bc3576000806000848481518110611983576119826139c0565b5b60200260200101518152602001908152602001600020905060006119ec308360000160009054906101000a900473ffffffffffffffffffffffffffffffffffffffff168a73ffffffffffffffffffffffffffffffffffffffff166113fd9092919063ffffffff16565b505091505060008260000160149054906101000a9004600b0b82611a109190613900565b9050600080611a568560000160009054906101000a900473ffffffffffffffffffffffffffffffffffffffff168660000160149054906101000a9004600b0b6000612072565b9150915060008560000160146101000a8154816bffffffffffffffffffffffff0219169083600b0b6bffffffffffffffffffffffff1602179055507f0a4e363539204f1c08fb03fe646c1b9b879d4902cb8a49273dbe3da76d0e79118a8660000160009054906101000a900473ffffffffffffffffffffffffffffffffffffffff1660008660008787604051611af29796959493929190613a2a565b60405180910390a1600083600b0b03611b5d57611b56308660000160009054906101000a900473ffffffffffffffffffffffffffffffffffffffff168a8e73ffffffffffffffffffffffffffffffffffffffff16612146909392919063ffffffff16565b9750611bb1565b611bae8560000160009054906101000a900473ffffffffffffffffffffffffffffffffffffffff16848a8e73ffffffffffffffffffffffffffffffffffffffff166122ad909392919063ffffffff16565b97505b50505050508080600101915050611962565b50509392505050565b60608190506000611bfe87308a73ffffffffffffffffffffffffffffffffffffffff166113fd9092919063ffffffff16565b50509150506000611c3030888b73ffffffffffffffffffffffffffffffffffffffff166113fd9092919063ffffffff16565b505091505060008682611c439190613a99565b905060008989604051602001611c5a929190613afd565b60405160208183030381529060405280519060200120905060008060008381526020019081526020016000209050600073ffffffffffffffffffffffffffffffffffffffff168160000160009054906101000a900473ffffffffffffffffffffffffffffffffffffffff1673ffffffffffffffffffffffffffffffffffffffff1603611d4757600160008c73ffffffffffffffffffffffffffffffffffffffff1673ffffffffffffffffffffffffffffffffffffffff1681526020019081526020016000208290806001815401808255809150506001900390600052602060002001600090919091909150555b600084600b0b03611dce5788600b0b88600b0b14611d9a576040517f08c379a0000000000000000000000000000000000000000000000000000000008152600401611d9190613b83565b60405180910390fd5b611dc78a84888f73ffffffffffffffffffffffffffffffffffffffff16612414909392919063ffffffff16565b9550611ea2565b888160000160149054906101000a9004600b0b611deb9190613a99565b600b0b88600b0b14611e32576040517f08c379a0000000000000000000000000000000000000000000000000000000008152600401611e2990613b83565b60405180910390fd5b600083600b0b03611e7157611e6a308b888f73ffffffffffffffffffffffffffffffffffffffff16612146909392919063ffffffff16565b9550611ea1565b611e9e8a84888f73ffffffffffffffffffffffffffffffffffffffff166122ad909392919063ffffffff16565b95505b5b60006004811115611eb657611eb5612f98565b5b8160010160009054906101000a900460ff166004811115611eda57611ed9612f98565b5b03611f82576000611eeb8c8c610d34565b905060006004811115611f0157611f00612f98565b5b816004811115611f1457611f13612f98565b5b03611f54576040517f08c379a0000000000000000000000000000000000000000000000000000000008152600401611f4b90613bef565b60405180910390fd5b808260010160006101000a81548160ff02191690836004811115611f7b57611f7a612f98565b5b0217905550505b600080611fa18c8460000160149054906101000a9004600b0b8c612072565b91509150898360000160146101000a8154816bffffffffffffffffffffffff0219169083600b0b6bffffffffffffffffffffffff1602179055508b8360000160006101000a81548173ffffffffffffffffffffffffffffffffffffffff021916908373ffffffffffffffffffffffffffffffffffffffff1602179055507f0a4e363539204f1c08fb03fe646c1b9b879d4902cb8a49273dbe3da76d0e79118d8d8c888b87876040516120599796959493929190613c0f565b60405180910390a1505050505050509695505050505050565b600080600360008673ffffffffffffffffffffffffffffffffffffffff1673ffffffffffffffffffffffffffffffffffffffff16815260200190815260200160002054915060026120c584600b0b61257b565b6120d186600b0b61257b565b6120da8561257b565b6120e49190613c7e565b6120ee9190613cb2565b6120f89190613e19565b905080600360008773ffffffffffffffffffffffffffffffffffffffff1673ffffffffffffffffffffffffffffffffffffffff16815260200190815260200160002081905550935093915050565b606060008061215487612674565b915091508173ffffffffffffffffffffffffffffffffffffffff16634329d293828373ffffffffffffffffffffffffffffffffffffffff1663b4b333c68b8b8b600067ffffffffffffffff8111156121af576121ae6134cb565b5b6040519080825280601f01601f1916602001820160405280156121e15781602001600182028036833780820191505090505b506040516024016121f59493929190613e64565b604051602081830303815290604052915060e01b6020820180517bffffffffffffffffffffffffffffffffffffffffffffffffffffffff8381831617835250505050876040518463ffffffff1660e01b815260040161225693929190613f1d565b6000604051808303816000875af1158015612275573d6000803e3d6000fd5b505050506040513d6000823e3d601f19601f8201168201806040525081019061229e9190613f75565b50809350505050949350505050565b60606000806122bb87612674565b915091508173ffffffffffffffffffffffffffffffffffffffff16634329d293828373ffffffffffffffffffffffffffffffffffffffff166350209a628b8b8b600067ffffffffffffffff811115612316576123156134cb565b5b6040519080825280601f01601f1916602001820160405280156123485781602001600182028036833780820191505090505b5060405160240161235c9493929190613fed565b604051602081830303815290604052915060e01b6020820180517bffffffffffffffffffffffffffffffffffffffffffffffffffffffff8381831617835250505050876040518463ffffffff1660e01b81526004016123bd93929190613f1d565b6000604051808303816000875af11580156123dc573d6000803e3d6000fd5b505050506040513d6000823e3d601f19601f820116820180604052508101906124059190613f75565b50809350505050949350505050565b606060008061242287612674565b915091508173ffffffffffffffffffffffffffffffffffffffff16634329d293828373ffffffffffffffffffffffffffffffffffffffff166362fc305e8b8b8b600067ffffffffffffffff81111561247d5761247c6134cb565b5b6040519080825280601f01601f1916602001820160405280156124af5781602001600182028036833780820191505090505b506040516024016124c39493929190613fed565b604051602081830303815290604052915060e01b6020820180517bffffffffffffffffffffffffffffffffffffffffffffffffffffffff8381831617835250505050876040518463ffffffff1660e01b815260040161252493929190613f1d565b6000604051808303816000875af1158015612543573d6000803e3d6000fd5b505050506040513d6000823e3d601f19601f8201168201806040525081019061256c9190613f75565b50809350505050949350505050565b600080820361258d576000905061266f565b6000600161259a846128fb565b901c6001901b905060018184816125b4576125b3614039565b5b048201901c905060018184816125cd576125cc614039565b5b048201901c905060018184816125e6576125e5614039565b5b048201901c905060018184816125ff576125fe614039565b5b048201901c9050600181848161261857612617614039565b5b048201901c9050600181848161263157612630614039565b5b048201901c9050600181848161264a57612649614039565b5b048201901c905061266b8182858161266557612664614039565b5b046129dc565b9150505b919050565b6000807f65599bf746e17a00ea62e3610586992d88101b78eec3cf380706621fb97ea8375491507fb969d79d88acd02d04ed7ee7d43b949e7daf093d363abcfbbc43dfdfd1ce969a549050600073ffffffffffffffffffffffffffffffffffffffff168173ffffffffffffffffffffffffffffffffffffffff160361287c57600073ffffffffffffffffffffffffffffffffffffffff168273ffffffffffffffffffffffffffffffffffffffff1603612799578273ffffffffffffffffffffffffffffffffffffffff166320bc44256040518163ffffffff1660e01b8152600401602060405180830381865afa158015612772573d6000803e3d6000fd5b505050506040513d601f19601f820116820180604052508101906127969190613964565b91505b8173ffffffffffffffffffffffffffffffffffffffff1663b6d200de7fa9214cc96615e0085d3bb077758db69497dc2dce3b2b1e97bc93c3d18d83efd36040518263ffffffff1660e01b81526004016127f29190613095565b602060405180830381865afa15801561280f573d6000803e3d6000fd5b505050506040513d601f19601f8201168201806040525081019061283391906133b0565b9050817f65599bf746e17a00ea62e3610586992d88101b78eec3cf380706621fb97ea83755807fb969d79d88acd02d04ed7ee7d43b949e7daf093d363abcfbbc43dfdfd1ce969a555b600073ffffffffffffffffffffffffffffffffffffffff168273ffffffffffffffffffffffffffffffffffffffff16036128b9576128b8613991565b5b600073ffffffffffffffffffffffffffffffffffffffff168173ffffffffffffffffffffffffffffffffffffffff16036128f6576128f5613991565b5b915091565b600080600090506000608084901c111561291d57608083901c92506080810190505b6000604084901c111561293857604083901c92506040810190505b6000602084901c111561295357602083901c92506020810190505b6000601084901c111561296e57601083901c92506010810190505b6000600884901c111561298957600883901c92506008810190505b6000600484901c11156129a457600483901c92506004810190505b6000600284901c11156129bf57600283901c92506002810190505b6000600184901c11156129d3576001810190505b80915050919050565b60008183106129eb57816129ed565b825b905092915050565b6000604051905090565b600080fd5b600080fd5b600073ffffffffffffffffffffffffffffffffffffffff82169050919050565b6000612a3482612a09565b9050919050565b6000612a4682612a29565b9050919050565b612a5681612a3b565b8114612a6157600080fd5b50565b600081359050612a7381612a4d565b92915050565b612a8281612a29565b8114612a8d57600080fd5b50565b600081359050612a9f81612a79565b92915050565b6000819050919050565b612ab881612aa5565b8114612ac357600080fd5b50565b600081359050612ad581612aaf565b92915050565b600080fd5b600080fd5b600080fd5b60008083601f840112612b0057612aff612adb565b5b8235905067ffffffffffffffff811115612b1d57612b1c612ae0565b5b602083019150836001820283011115612b3957612b38612ae5565b5b9250929050565b600080600080600080600080600060c08a8c031215612b6257612b616129ff565b5b6000612b708c828d01612a64565b9950506020612b818c828d01612a90565b9850506040612b928c828d01612ac6565b97505060608a013567ffffffffffffffff811115612bb357612bb2612a04565b5b612bbf8c828d01612aea565b965096505060808a013567ffffffffffffffff811115612be257612be1612a04565b5b612bee8c828d01612aea565b945094505060a08a013567ffffffffffffffff811115612c1157612c10612a04565b5b612c1d8c828d01612aea565b92509250509295985092959850929598565b600081519050919050565b600082825260208201905092915050565b60005b83811015612c69578082015181840152602081019050612c4e565b60008484015250505050565b6000601f19601f8301169050919050565b6000612c9182612c2f565b612c9b8185612c3a565b9350612cab818560208601612c4b565b612cb481612c75565b840191505092915050565b60006020820190508181036000830152612cd98184612c86565b905092915050565b600080600080600080600060a0888a031215612d0057612cff6129ff565b5b6000612d0e8a828b01612a64565b9750506020612d1f8a828b01612a90565b9650506040612d308a828b01612ac6565b955050606088013567ffffffffffffffff811115612d5157612d50612a04565b5b612d5d8a828b01612aea565b9450945050608088013567ffffffffffffffff811115612d8057612d7f612a04565b5b612d8c8a828b01612aea565b925092505092959891949750929550565b6000819050919050565b6000612dc2612dbd612db884612a09565b612d9d565b612a09565b9050919050565b6000612dd482612da7565b9050919050565b6000612de682612dc9565b9050919050565b612df681612ddb565b82525050565b6000602082019050612e116000830184612ded565b92915050565b600060208284031215612e2d57612e2c6129ff565b5b6000612e3b84828501612a90565b91505092915050565b6000819050919050565b612e5781612e44565b82525050565b6000602082019050612e726000830184612e4e565b92915050565b60058110612e8557600080fd5b50565b600081359050612e9781612e78565b92915050565b60008060408385031215612eb457612eb36129ff565b5b6000612ec285828601612a90565b9250506020612ed385828601612e88565b9150509250929050565b600060208284031215612ef357612ef26129ff565b5b6000612f0184828501612a64565b91505092915050565b60008115159050919050565b612f1f81612f0a565b82525050565b6000602082019050612f3a6000830184612f16565b92915050565b600060208284031215612f5657612f556129ff565b5b6000612f6484828501612ac6565b91505092915050565b612f7681612a29565b82525050565b600081600b0b9050919050565b612f9281612f7c565b82525050565b7f4e487b7100000000000000000000000000000000000000000000000000000000600052602160045260246000fd5b60058110612fd857612fd7612f98565b5b50565b6000819050612fe982612fc7565b919050565b6000612ff982612fdb565b9050919050565b61300981612fee565b82525050565b60006060820190506130246000830186612f6d565b6130316020830185612f89565b61303e6040830184613000565b949350505050565b6000806040838503121561305d5761305c6129ff565b5b600061306b85828601612e88565b925050602061307c85828601612a90565b9150509250929050565b61308f81612aa5565b82525050565b60006020820190506130aa6000830184613086565b92915050565b6130b981612f0a565b81146130c457600080fd5b50565b6000813590506130d6816130b0565b92915050565b6000806000606084860312156130f5576130f46129ff565b5b6000613103868287016130c7565b9350506020613114868287016130c7565b9250506040613125868287016130c7565b9150509250925092565b61313881612e44565b811461314357600080fd5b50565b6000813590506131558161312f565b92915050565b60008060408385031215613172576131716129ff565b5b600061318085828601612a90565b925050602061319185828601613146565b9150509250929050565b600080604083850312156131b2576131b16129ff565b5b60006131c085828601612a90565b92505060206131d185828601612a90565b9150509250929050565b60006020820190506131f06000830184613000565b92915050565b600061320182612a09565b9050919050565b613211816131f6565b811461321c57600080fd5b50565b60008135905061322e81613208565b92915050565b6000806040838503121561324b5761324a6129ff565b5b60006132598582860161321f565b925050602061326a8582860161321f565b9150509250929050565b61327d81612f7c565b811461328857600080fd5b50565b60008135905061329a81613274565b92915050565b600080604083850312156132b7576132b66129ff565b5b60006132c58582860161328b565b92505060206132d685828601613146565b9150509250929050565b600080604083850312156132f7576132f66129ff565b5b600061330585828601613146565b92505060206133168582860161328b565b9150509250929050565b60006040820190506133356000830185612e4e565b6133426020830184612f89565b9392505050565b600060408201905061335e6000830185612f89565b61336b6020830184612e4e565b9392505050565b600061337d82612a29565b9050919050565b61338d81613372565b811461339857600080fd5b50565b6000815190506133aa81613384565b92915050565b6000602082840312156133c6576133c56129ff565b5b60006133d48482850161339b565b91505092915050565b60006133e882612dc9565b9050919050565b6133f8816133dd565b82525050565b600060608201905061341360008301866133ef565b6134206020830185612f6d565b61342d6040830184612f6d565b949350505050565b6000815190506134448161312f565b92915050565b60008151905061345981613274565b92915050565b60008060008060808587031215613479576134786129ff565b5b600061348787828801613435565b94505060206134988782880161344a565b93505060406134a987828801613435565b92505060606134ba87828801613435565b91505092959194509250565b600080fd5b7f4e487b7100000000000000000000000000000000000000000000000000000000600052604160045260246000fd5b61350382612c75565b810181811067ffffffffffffffff82111715613522576135216134cb565b5b80604052505050565b60006135356129f5565b905061354182826134fa565b919050565b600080fd5b600060ff82169050919050565b6135618161354b565b811461356c57600080fd5b50565b60008151905061357e81613558565b92915050565b60008151905061359381612a79565b92915050565b60007fffffffff0000000000000000000000000000000000000000000000000000000082169050919050565b6135ce81613599565b81146135d957600080fd5b50565b6000815190506135eb816135c5565b92915050565b600080fd5b600067ffffffffffffffff821115613611576136106134cb565b5b61361a82612c75565b9050602081019050919050565b600061363a613635846135f6565b61352b565b905082815260208101848484011115613656576136556135f1565b5b613661848285612c4b565b509392505050565b600082601f83011261367e5761367d612adb565b5b815161368e848260208601613627565b91505092915050565b6000819050919050565b6136aa81613697565b81146136b557600080fd5b50565b6000815190506136c7816136a1565b92915050565b60006136d882612a29565b9050919050565b6136e8816136cd565b81146136f357600080fd5b50565b600081519050613705816136df565b92915050565b60006101608284031215613722576137216134c6565b5b61372d61016061352b565b9050600061373d8482850161356f565b60008301525060206137518482850161356f565b602083015250604061376584828501613435565b604083015250606061377984828501613584565b606083015250608061378d848285016135dc565b60808301525060a082015167ffffffffffffffff8111156137b1576137b0613546565b5b6137bd84828501613669565b60a08301525060c06137d184828501613435565b60c08301525060e06137e584828501613435565b60e0830152506101006137fa848285016136b8565b6101008301525061012061381084828501613584565b61012083015250610140613826848285016136f6565b6101408301525092915050565b600060208284031215613849576138486129ff565b5b600082015167ffffffffffffffff81111561386757613866612a04565b5b6138738482850161370b565b91505092915050565b60008151905061388b81613208565b92915050565b600080604083850312156138a8576138a76129ff565b5b60006138b68582860161387c565b92505060206138c78582860161344a565b9150509250929050565b7f4e487b7100000000000000000000000000000000000000000000000000000000600052601160045260246000fd5b600061390b82612f7c565b915061391683612f7c565b925082820390506b7fffffffffffffffffffffff81137fffffffffffffffffffffffffffffffffffffffff8000000000000000000000008212171561395e5761395d6138d1565b5b92915050565b60006020828403121561397a576139796129ff565b5b600061398884828501613584565b91505092915050565b7f4e487b7100000000000000000000000000000000000000000000000000000000600052600160045260246000fd5b7f4e487b7100000000000000000000000000000000000000000000000000000000600052603260045260246000fd5b6000819050919050565b6000613a14613a0f613a0a846139ef565b612d9d565b612f7c565b9050919050565b613a24816139f9565b82525050565b600060e082019050613a3f600083018a612f6d565b613a4c6020830189612f6d565b613a596040830188613a1b565b613a666060830187612f89565b613a736080830186613a1b565b613a8060a0830185612e4e565b613a8d60c0830184612e4e565b98975050505050505050565b6000613aa482612f7c565b9150613aaf83612f7c565b925082820190507fffffffffffffffffffffffffffffffffffffffff80000000000000000000000081126b7fffffffffffffffffffffff82131715613af757613af66138d1565b5b92915050565b6000604082019050613b126000830185612f6d565b613b1f6020830184612f6d565b9392505050565b600082825260208201905092915050565b7f666c6f77206d69736d6174636800000000000000000000000000000000000000600082015250565b6000613b6d600d83613b26565b9150613b7882613b37565b602082019050919050565b60006020820190508181036000830152613b9c81613b60565b9050919050565b7f6e6f206d757475616c2069642073797374656d00000000000000000000000000600082015250565b6000613bd9601383613b26565b9150613be482613ba3565b602082019050919050565b60006020820190508181036000830152613c0881613bcc565b9050919050565b600060e082019050613c24600083018a612f6d565b613c316020830189612f6d565b613c3e6040830188612f89565b613c4b6060830187612f89565b613c586080830186612f89565b613c6560a0830185612e4e565b613c7260c0830184612e4e565b98975050505050505050565b6000613c8982612e44565b9150613c9483612e44565b9250828203905081811115613cac57613cab6138d1565b5b92915050565b6000613cbd82612e44565b9150613cc883612e44565b9250828201905080821115613ce057613cdf6138d1565b5b92915050565b60008160011c9050919050565b6000808291508390505b6001851115613d3d57808604811115613d1957613d186138d1565b5b6001851615613d285780820291505b8081029050613d3685613ce6565b9450613cfd565b94509492505050565b600082613d565760019050613e12565b81613d645760009050613e12565b8160018114613d7a5760028114613d8457613db3565b6001915050613e12565b60ff841115613d9657613d956138d1565b5b8360020a915084821115613dad57613dac6138d1565b5b50613e12565b5060208310610133831016604e8410600b8410161715613de85782820a905083811115613de357613de26138d1565b5b613e12565b613df58484846001613cf3565b92509050818404811115613e0c57613e0b6138d1565b5b81810290505b9392505050565b6000613e2482612e44565b9150613e2f8361354b565b9250613e5c7fffffffffffffffffffffffffffffffffffffffffffffffffffffffffffffffff8484613d46565b905092915050565b6000608082019050613e7960008301876133ef565b613e866020830186612f6d565b613e936040830185612f6d565b8181036060830152613ea58184612c86565b905095945050505050565b6000613ebb82612dc9565b9050919050565b613ecb81613eb0565b82525050565b7f3078000000000000000000000000000000000000000000000000000000000000600082015250565b6000613f07600283612c3a565b9150613f1282613ed1565b602082019050919050565b6000608082019050613f326000830186613ec2565b8181036020830152613f448185612c86565b90508181036040830152613f5781613efa565b90508181036060830152613f6b8184612c86565b9050949350505050565b60008060408385031215613f8c57613f8b6129ff565b5b600083015167ffffffffffffffff811115613faa57613fa9612a04565b5b613fb685828601613669565b925050602083015167ffffffffffffffff811115613fd757613fd6612a04565b5b613fe385828601613669565b9150509250929050565b600060808201905061400260008301876133ef565b61400f6020830186612f6d565b61401c6040830185612f89565b818103606083015261402e8184612c86565b905095945050505050565b7f4e487b7100000000000000000000000000000000000000000000000000000000600052601260045260246000fdfea264697066735822122097c3109729ae5541b6c2fc577ea8c9383d4844ffac4837bbc195e61d227b574a64736f6c63430008180033",
  "linkReferences": {},
  "deployedLinkReferences": {}
}